:020000040005F5
:20600000004001203D6505006B650500AB6205006965050069650500696505000000000018
:20602000000000000000000000000000696505006965050000000000696505006965050014
:206040006965050069650500696505006965050069650500696505006965050069650500A8
:20606000696505006965050069650500696505006965050069650500696505006965050088
:20608000696505006965050069650500696505006965050069650500696505006965050068
:2060A000696505006965050069650500696505006965050069650500696505006965050048
:1860C000696505006965050069650500696505006965050069650500D6
:2060D80070B52548066800F0CBF924480025244C0560206C806C80472248006838B122482A
:2060F8000068B6F1FF3018BF304600F051F81F4840F2391205601E48016862F31B4101609A
:206118001C48016801F44051B1F5805F06D10168194A114001F5003202600160174D012625
:20613800EE612068016A142088471548016841F4E021016013482E60006800F44000B0F57B
:20615800000F03D1206C416C0F4888470F4801680029FCD170BD00BF1C130050840460429A
:20617800B001001080012843800520438C2108404820034028000940EFFFFCFC0000244314
:2061980000200940B44F0050BD3786000C006842F8B505462248234E4168890705D40168AD
:2061B800F02242EA114186F84D101F494FF001221F4F0A601D49098839680968846820465F
:2061D8008847A00105D4E00103D5307840F0020030703868214642682846904700F02CF920
:2061F8001448154A0068C0F305311170C1054FF0130158BF232140237354382101EA901078
:2062180000F56050A2F85C003868816820468847022000F0C7F8094801210160F8BD00BFF4
:20623800AC4F00500962084004A40C4000A00C40F00100100C1400500EB00C4094046042B3
:2062580070B58EB06E460C46002108230546324600F01AF9304600F02BF9C0B16A46284692
:2062780000212C2300F010F99DF81200A0420ED1059800F041F950B19DF80C00032806D1CA
:206298009DF80D00012802D1079800F050F90EB070BDFEE70E480F4A0F4B016882580068EC
:2062B8000340D0B20D4A7F2888BF0020934207D1090F022906D307D0032901D1153004E0D5
:2062D800FF2002E00A2000E00B3040B2704700BF1813005088FDFFFF00F0FF0F0010B40B2D
:2062F80010B50D4C2068416904208847042000F01BF80128FAD12068C1694FF4A060884764
:20631800064801210160064801688907FCD5054801210160416010BDB801001028200860C5
:2063380028200840181A44420F49C3070A68496D01D1012106E001F0040102F00103C9180C
:2063580018BF0121830744BF02F0020301EA5301400744BF02F0040001EA90010220002962
:2063780018BF0120704700BF4021084010F1240FD8BF6FF023001B28A8BF1B2003210F2267
:206398002430A1EB101122EA000022FA01F14FF6FF7222FA00F040EA014001490860704734
:2063B80018A00C40B0B50A490A4A0B4B0C684D68AC42FCD1844208BFB0BD155C145DAC42B1
:2063D8004FF0FF3538BF01252C441C5D0C60EDE700600C40746505007865050007480068C9
:2063F800C00608D406480749006808400649884204BF012070470020704700BFB04F0050FC
:206418005013005000C4FF3F00C0071C084880F308880848016841F47001016000BF00BF3B
:2064380000F092F8002000F055F8012000F08EF80040012088ED00E080B5FFF7CFFF60B116
:206458000648006881034FEA00414FF0000058BF0816BDE88040FFF789BF80BDB44F0050C9
:2064780080B506480649006808400649884204D1FFF710FF1328C8BF80BDFEE71813005030
:2064980000F0FF0F0010B40B70B51C46154601EB403600F03AF8210405D016F8011B013C50
:2064B80005F8011BF7E708B900F04AF8002070BDB0B5074907231A465BB2002B05D4D3B2B8
:2064D800CC5CC55C531EA542F5D0D0B2C009B0BD6C65050000200721FFF7B2FE0124E0B20B
:2064F8002B2804D80021FFF7ABFE0134F7E7FFF7F7FE00F011F8FCE7002118B1421E01313F
:206518001040FAE701208843704780B500F014F8002818BF012080BD01480121017070476E
:2065380006200240FFF7CCFDFFF770BFFEE7016881F3088841688F46EFF3108072B67047D6
:14655800EFF3108062B670470120704700BFFEE7FEE7FEE7A8
:10656C0043433133783252310102000302000103FC
:207FA80000008001100080FFFDFF5800FFFFBBF3FFFFFFFFFFFFFFFFFFFFFFFFFFFFFFFFB9
:207FC800FFFFFFFFFFFFFFFFFFFFFFFFFFFFFFFFFFFFFF00FFFFFFFF00FFFFFF00C5C5FF2A
:187FE800000000FF00600500FFFFFFFFFFFFFFFFFFFFFFFFFFFFFFFF2D
:00000001FF
