:100000004343313378325231FFFFFFFF0301BFFF1B
:10001000FFFF0700FFFFFFFFFFFFFFFF00010000E2
:1000200000000200FFFFFFFF3800FFFF01BFFFFFDE
:08003000FFFFFFFF00000000CC
:1001000010590020AD6C0000AF0C0100C16C000064
:10011000D50C0100D96C0000D50C010000000000D6
:10012000000000000000000000000000D50C0100ED
:10013000D50C010000000000D50C0100D50C010019
:100140007BB972B90029BEBF00204FF0004106E024
:1001500008BF00281CBF6FF000414FF0FF3000F0D7
:10016000BFB9ADF1080C6DE904CE002909DB002B05
:100170001ADB00F04DF8DDF804E0DDE9022304B0FD
:100180007047404261EB4101002B1BDB00F040F85F
:10019000DDF804E0DDE9022304B0404261EB4101F7
:1001A000524263EB43037047524263EB430300F058
:1001B0002FF8DDF804E0DDE9022304B0404261EBF2
:1001C00041017047524263EB430300F021F8DDF830
:1001D00004E0DDE9022304B0524263EB43037047BD
:1001E00053B94AB9002908BF00281CBF4FF0FF319E
:1001F0004FF0FF3000F074B9ADF1080C6DE904CE9A
:1002000000F006F8DDF804E0DDE9022304B07047F1
:100210002DE9F047089E0D4604468846002B4DD137
:100220008A42944668D9B2FA82F252B101FA02F3D4
:10023000C2F1200120FA01F10CFA02FC41EA0308A4
:1002400094404FEA1C45210CB8FBF5FE1FFA8CF7D1
:1002500005FB1E8341EA03430EFB07F199420BD9CC
:100260001CEB03030EF1FF3080F01E81994240F237
:100270001B81AEF1020E63445B1AA4B2B3FBF5F02E
:1002800005FB103344EA034400FB07F7A7420AD9F1
:100290001CEB040400F1FF3380F00881A74240F218
:1002A000058164440238E41B40EA0E4000211EB17F
:1002B000D4400023C6E90043BDE8F0878B4208D94B
:1002C000002E00F0EE800021C6E900050846BDE8DA
:1002D000F087B3FA83F100294AD1AB4202D38242BC
:1002E00000F2F980841A65EB030301209846002E82
:1002F000E2D0C6E90048DFE702B9FFDEB2FA82F2D7
:10030000002A40F09180A1EB0C054FEA1C471FFA30
:100310008CFE0121B5FBF7F307FB1350250C45EAD2
:1003200000450EFB03F0A84208D91CEB050503F1BC
:10033000FF3802D2A84200F2CB8043462D1AA4B265
:10034000B5FBF7F007FB105544EA05440EFB00FE31
:10035000A64508D91CEB040400F1FF3502D2A645DE
:1003600000F2BB802846A4EB0E0440EA03409EE75F
:10037000C1F120078B4022FA07FC4CEA030C20FA5B
:1003800007F405FA01F31C43FD404FEA1C4900FA4B
:1003900001F3B5FBF9F8200C1FFA8CFE09FB185588
:1003A00040EA054508FB0EF0A84202FA01F20BD91B
:1003B0001CEB050508F1FF3A80F08880A84240F266
:1003C0008580A8F1020865442D1AA4B2B5FBF9F0A6
:1003D00009FB105544EA054500FB0EFEAE4508D961
:1003E0001CEB050500F1FF346CD2AE456AD902382A
:1003F000654440EA0840A0FB0294A5EB0E05A54227
:10040000C846A64656D353D05EB1B3EB080265EB9F
:100410000E0505FA07F722FA01F3CD401F43C6E99E
:1004200000750021BDE8F087C2F1200320FA03F136
:100430000CFA02FC25FA03F395400D434FEA1C47E2
:100440001FFA8CFEB3FBF7F107FB11302B0C43EACC
:10045000004301FB0EF0984204FA02F408D91CEBA9
:10046000030301F1FF382FD298422DD9023963449A
:100470001B1AADB2B3FBF7F007FB103345EA034597
:1004800000FB0EF3AB4208D91CEB050500F1FF3869
:1004900016D2AB4214D902386544ED1A40EA014144
:1004A00038E73146304607E78646E5E61846FAE67D
:1004B0004B45A9D2B9EB020864EB0C0E0138A3E757
:1004C0004046EAE7204694E74146D1E7D0467BE73D
:1004D000023B654432E7084609E76444023842E7D4
:1004E000704700BF034613F8012B002AFBD1181AEE
:1004F0000138704710B5104A92E8030086B001AB8E
:1005000083E80300194603A80CF022FD0022142101
:1005100004460CF0BDFC012010F0CEFD0122142198
:1005200020460CF0B5FC4FF40C7010F0C5FD2046D1
:100530000CF070FC06B010BDEC10010030B50B4D96
:1005400089B0FFF7D7FF0FCD03AC0FC42B68236032
:1005500003A968460CF0FCFCB92104460FF05CFED0
:1005600020460CF057FC09B030BD00BFF41001006C
:100570002DE9F34103880446BBB1B3F5867F2DD145
:10058000822915D110F004F9BFF35F8F164B0022BA
:100590001E681A60BFF35F8F10F0FCF8134D144F04
:1005A000DFF8508055F8040B20B94FF48673238090
:1005B000012016E090F8493026FA03F3DB07F1D565
:1005C00000F05EFD0028EDD03B68009355F8043C38
:1005D00042460221184600F0FFFCE3E700230380B7
:1005E000032002B0BDE8F0819C280020301B0020D1
:1005F000A031002051060000034A1368034303485A
:10060000136002F0F5B800BF9C280020201B0020DA
:1006100013B590F84A300B4A013380F84A300A4B40
:100620001B680093044603468021203000F0D4FC70
:10063000064B19782246002002B0BDE8104002F0B7
:1006400097B800BF11060000A0310020904B002099
:1006500073B5044600F014FD40B304F120063046A3
:1006600000F00EFD054620460FF011FE012815D1C1
:10067000E5B10F4B0F4A1B6800930025234684F811
:100680004A507E21304600F0A7FC0B4B22461978D9
:10069000284602B0BDE8704002F06AB830B92DB902
:1006A000304600F0D7FC054B2246F0E702B070BDA3
:1006B000A031002011060000914B0020924B002039
:1006C000F8B502F001F81D4B1D4D187001F0FCFF4C
:1006D0001C4B1D4C187001F0F7FF1C4B18700023C9
:1006E000AB601B4B6B60012754F8041B39B91948E8
:1006F00002F066F8BDE8F840114800F08DBF4B6C81
:1007000091F8490043F08C0600F0F0FE54F8043CE8
:10071000314693F8490000F02BFF54F8043C93F85D
:10072000490000F011FF54F8043CAA6893F84930DE
:1007300007FA03F31343AB60D6E700BF914B0020E9
:1007400090280020924B0020301B0020904B00206E
:10075000F9050000201B0020014808F0FBBD00BF88
:10076000A028002010B586B003A808F097FC00224E
:1007700003AB124912488DF80C20049208F0C0FD1A
:1007800001A808F0F9FD029B0E494FF0E024DB09B7
:10079000013B63610F200FF071FA236943F00203FC
:1007A0002361236943F002032361236943F00503B6
:1007B0002361054B01225A6006B010BD0B030100F6
:1007C000A0280020070301000000244338B500F0F2
:1007D00069FD60B30FF07BFD054600F06BFD2B1A41
:1007E000002B044617DB00F0E3FC002508F004FBB7
:1007F000044608F0C9FDB4FBF0F1A94228BF294620
:10080000C1B14B1C05D00C4808F0A8FD0A4808F0FF
:1008100035FD01200FE008F0B7FD0849641BC20157
:100820000023A4FB0101FFF7DBFC0546DEE74FF0E8
:10083000FF35DBE7084638BDA028002040420F0006
:10084000014B9868704700BF002009402DE9F04136
:1008500001F0CAFDFFF786FF04F094FB01F03EFFB4
:1008600000216F486F4FDFF8C081704D704E714CA2
:1008700001F0A6FF00F0A6FB08F0AAFA06F094F932
:1008800001F0EAFD02F0C2FA6B4B1B68984702F0D8
:1008900021FB7B689847D8F804309847AA79EB7910
:1008A00003EB022333802368022B07DD634A64498C
:1008B000644801F089FE644810F0BBF82368032BFC
:1008C00015DD5E4A61495F4801F07EFE604961487E
:1008D00001F07AFE2368032B09DD5F495F4801F0D0
:1008E00073FE2368032B02DD0A2010F0A0F82368B2
:1008F000022B5EDD514A5249524801F065FE584BC9
:100900005848196801F060FE2368022B51DD4B4AFC
:100910004B494C4801F058FED8F80010524801F0FD
:1009200053FE2368022B44DD444A4549454801F003
:100930004BFE39684D4801F047FE2368022B38DD35
:100940003E4A3F493F4801F03FFE49484AF6CD3113
:1009500001F03AFE2368022B2BDD384A384939482A
:1009600001F032FE43481A2101F02EFE2368022BCB
:100970001FDD324A3249334801F026FE31883E48B5
:1009800001F022FE2368022B13DD2C4A2C492D484E
:1009900001F01AFE394801F017FE2368022B08DD2A
:1009A000224801F069F82368022B02DD0A2010F0CA
:1009B0003EF8334A2B6813606B685360314800215E
:1009C00001F0FEFE4FF0FF3007F03CF82368022BE9
:1009D000054613DD194A1A491A4801F0F5FD2A485F
:1009E00001F0F2FD2368022B08DD284601F034F8FF
:1009F0002368022B02DD0A2010F019F801F03EFDF9
:100A000022480FF03AFC10F002FB01F06DFE0446A4
:100A100008F010FA002CF8D10FF0E1FFF5E700BF65
:100A2000581C00203812010020140100444400200A
:100A30004C4400207C1C0020881201006B16010031
:100A4000701601007516010084160100BA16010027
:100A5000BE160100C9160100D3160100E6160100FA
:100A6000C4130100F1160100001701000B1701006B
:100A70001617010030170100501701005D17010023
:100A8000725200202C1E002072170100701201000B
:100A900037B590F82D400F4B012C98BF03345B689D
:100AA000054694BFE4B20524984701220A4B02FA96
:100AB00004F41B680093013C81B2084AB1FBF4F0D6
:100AC0002B4604FB101105F10C0000F085FA03B071
:100AD00030BD00BF18140100A0310020610B0000E0
:100AE0002DE9F0470D468B6892F82C900646506B26
:100AF000D3E9007814460FF076FE686802F0BCF97E
:100B0000A96813480FF0C8FE124829460FF0C4FE2A
:100B1000636B1B6863B10023A3852046FFF7B8FF12
:100B20009FB14A46314640463B46BDE8F04718472C
:100B300004F10C0000F08EFA214607480FF053FE36
:100B4000214606480FF0A8FEEAE7BDE8F08700BF9F
:100B5000241C00203C1C002024290020301C0020E4
:100B60002DE9F74F0446002800F0C980436B1E684A
:100B7000002E00F0C480706802F094F961490C20E6
:100B800001F01AFC0121072001F00AFC5E4B5B68B2
:100B9000984700286CDB01F029FB5C4F90F802902D
:100BA0007D6801F023FB804601F05EFB0146404674
:100BB000A84701F011FCD7F818A08046D04708B12B
:100BC00001250CE0B8F1000F14D0BD6801F04CFB1A
:100BD000A847054698B1022814BF04250125B2682C
:100BE000002A00F08C80032D00F28580DFE805F0FC
:100BF00042615187FB6998470028E1D1E5E7B8F1E8
:100C0000000FECD104F000FA6FF0D90BD7F81C807C
:100C1000ABEB000BC047B0B1D047D0B104F0F4F952
:100C20006FF0400AAAEB000AC047D8B1C047B8B17C
:100C30003B69032101A898470328C1D19DF80630DC
:100C40004B45BDD1CBE704F0DFF91BEB000FE1D43E
:100C5000E2E7C0470028E1D17B6998470028DDD052
:100C60000225BCE704F0D0F91AEB000FDCD4DDE775
:100C70000525B4E794F82C300020013384F82D00CA
:100C800084F82C302246314603B0BDE8F04FFFF720
:100C900027BF002384F82D3094F82C300133DBB2C9
:100CA00084F82C30127A9A421CD82246314602200F
:100CB000EAE794F82D300133DBB2052B84F82D30B0
:100CC00007D994F82C300021013384F82D1084F8D2
:100CD0002C3094F82C10137A994203D322463146D3
:100CE0000120D1E72046FFF7D3FE706803B0BDE8CE
:100CF000F04F0FF0ABBE224631462846C4E703B0A2
:100D0000BDE8F08F44440020541201008812010015
:100D10002DE9F04106460D200F4601F055FB054632
:100D200000F0D2FE01210B2001F03AFB364B1C688B
:100D3000002C43D135480FF09BFD0446002859D0C4
:100D40002946201D0FF03AFD002304F13002C4E9CA
:100D50000C322D48A38521460FF058FD606B0FF033
:100D600069FD072846DC2A480FF082FD0546002869
:100D700034D028480FF07CFDA86058B302F05AF830
:100D8000686018B30520D5F8088001F00FFBC8E9AA
:100D9000006710F0FF0006BF082388F8083088F8C5
:100DA0000800606B29460FF031FD636B1B689D42A4
:100DB00028D12046BDE8F041FFF76ABE2946201D34
:100DC0000FF001FD0028C9D12468B1E7A9681148D6
:100DD0000FF062FD0E4829460FF05EFD606B0FF0CC
:100DE00029FD38B9084821460FF0FDFC0748214687
:100DF0000FF052FD36B1384633460122BDE8F041CE
:100E000006211847BDE8F08124290020301C00206D
:100E10003C1C0020241C002008B505480FF018FDDC
:100E200004480FF015FDBDE8084003480FF010BD61
:100E30003C1C0020241C0020301C0020014B1B6A9D
:100E4000184700BF88120100014B5B6A184700BFBA
:100E5000881201000C4B13B51B6898470B4B0446D6
:100E60009B6A01A91920984701280BD0002C019BEF
:100E7000B8BF1524802BD4BFC4EB0300C4F180009D
:100E800002B010BD0020FBE75412010088120100DF
:100E900037B50C4C6946A56A1920A84780B901A945
:100EA0000420A84730B90199E36A21F002010191B9
:100EB0000420984700F0FCFDFFF7AEFFFFF7BEFFF0
:100EC00003B030BD8812010013B501F093F9032877
:100ED00035D01C4B9B689847002830DB0D2001F073
:100EE00073FA19490FF06FFC28B30C2001F06CFA6B
:100EF00015490FF068FC10BB00F0F0FD044608B97E
:100F000000F014FE072001F051FA78B102238DF8A9
:100F1000043000238DF8053001F068F983788DF8EE
:100F200006300A4B0321DB6801A898473CB9084BFF
:100F30009B68984703E001F04FFA0028D5D102B032
:100F400010BD00BF5412010044440020881201006B
:100F500020140100F8B503880546BBB1452B27D105
:100F600088291BD1144B1C68B4B1231D9A421DD192
:100F7000124E114821460FF036FC63693768336022
:100F8000A3690BB1E0699847376005E00A4B1C681C
:100F900034B90B4B01221A7045232B8001200AE043
:100FA000A168201D0FF0D2F92468F1E72468DBE77F
:100FB000002303800320F8BDF8290020A031002081
:100FC000A54B0020024B03480021196001F0F8BB3B
:100FD000F8290020481C002070B50446049DE361F8
:100FE0000A4B1B78C4E905526BB1094D094B2E68B9
:100FF0002B60201D0FF0AAF92E6021460648BDE89F
:1010000070400FF003BCA160F7E700BFA54B0020C4
:10101000A0310020481C0020F829002070B5094BA1
:101020001B7804463BB1084D084B2E682B600430FA
:101030000FF095F92E6021460548BDE870400FF08D
:10104000E5BB00BFA54B0020A0310020481C0020BC
:10105000F829002010B5084B1B78044643B1043032
:1010600000F032F921460548BDE810400FF0BBBB47
:10107000C0E90333F6E700BFA54B0020F8290020A4
:1010800008B5084B1B78014623B10069B0FA80F01F
:10109000400908BD04480FF0D4FB80F00100C0B245
:1010A000F7E700BFA54B0020F8290020144BF0B54E
:1010B0000022C3F85C0200F0030003F1940194469F
:1010C00094278000862607FB023501F890CC6C79C6
:1010D00024F00F0404436C71032A14BF0C461C4611
:1010E0000132042A21F88E6C41F8944C01F19401EC
:1010F000E9D10022C3E99523C3F850320148F0BD7D
:10110000FC2900204C2C00200C4B70B50025A3F1CD
:1011100008042E461846D4F85C2200210FF0B1FFD7
:1011200001350346042D00F8046C03F19403F1D15A
:10113000C4F85042C4F8584270BD00BF042A0020D1
:10114000014BD3F858027047FC29002038B5074CF2
:10115000D4E99652002105F108000FF092FF002318
:101160002B712B68C4F8583238BD00BFFC29002011
:1011700010B50D4C236813B90C4A136010BD0FF065
:10118000A6F82268D2E900310B441B1A92681AB9FA
:101190001844064B1860F1E7D2E900142144091AFB
:1011A0008B4228BF0B46F1E7602C00205C2C00200E
:1011B000014801F01DBB00BF581C00202DE9F04183
:1011C0000388054653B1592B46D1872921D124499B
:1011D0000B68002063B918B10B6001E0204A13606E
:1011E00059232B800120BDE8F08101203346F1E72F
:1011F000D3E902649442F8D000B10B6019460B4663
:1012000089680029ECD0C8689042F8D18968996053
:10121000F4E78229E4D1124F4FF000083C68002621
:10122000002CDDD020460FF06DFD90B1E068224625
:10123000882101F09DFA50B9A368E0602EB1B36037
:10124000C4F80880FFF794FFE8E73B60F8E7FFF792
:10125000AFFF2646A468E3E7002303800320C2E72C
:10126000602C002010B50446FFF7A2FFE3680B4A8C
:101270000BB1136833B90A4B1B68E3601368A360B2
:10128000146004E0A34206D1054A1268DA60BDE8A2
:101290001040FFF76DBF9B68ECE700BF602C00209B
:1012A000A0310020024B1868003818BF0120704799
:1012B000602C0020024B186808B1024B1868704778
:1012C000602C00205C2C002010B50B4A1368834270
:1012D000044608D183681360FFF74AFF0023C4E97E
:1012E000023310BD1346002BF8D09A68A242F9D100
:1012F000A2689A60F0E700BF602C0020014B1888BC
:10130000704700BF901F00202DE9F041012986B0F1
:1013100006460F46144603DC002006B0BDE8F08107
:1013200003A90FF05AF90B4603CB1B8823839DF8C2
:10133000113020616161002B45D0B51C02AA01A9C2
:1013400003A80FF015F89DF81380B8F1000F4DD0E9
:10135000029B2BB16A7815F8023B03EB02239BB288
:10136000B8F1020FA38332D1314920460FF026FA9B
:101370006B78237015F8023B63709DF81580B8F107
:10138000000F4DD0019B002B37D06A7815F8023B37
:1013900003EB0223029A9BB2E38302B9A383B8F161
:1013A000020F2DD1224904F108000FF007FA6B78E3
:1013B000237215F8023B6372A81B3B1A8742C4E9EB
:1013C0000E53A9DBA9E7B378A376F51CB6E7B8F10D
:1013D000030FD2D105F108021346611E13F8010D67
:1013E00001F8010F9D42F9D11546C6E71049204684
:1013F0000FF0E4F9A4F81C80BFE7A38BE383CEE7EA
:10140000B8F1030FD8D105F10802134604F1080121
:1014100013F8010D01F8010BAB42F9D11546CBE7EA
:10142000034904F108000FF0C9F9A4F81E80C3E7CE
:10143000F015010030B591B00546FFF75FFF4FF69C
:10144000FF74A04204D14FF0FF34204611B030BDEC
:101450004022002168460FF014FE00F0BDFF6A46EE
:10146000014617480FF023F900F0B6FFF8B1ADF8C8
:1014700000400C2000F0A8FF014602A80FF09EF9E2
:1014800000F0CAFE0E9000F0B5FE0F9068460FF017
:1014900019F80446002DD8D000F0F0FE0028D2D074
:1014A00000F0A4FE014668460FF054F8CDE70D2089
:1014B00000F08AFF014668460FF080F9D9E700BFC7
:1014C000AD23000008B5054905480BF041FD054B6B
:1014D00005491860BDE808400BF0F4BC681C00200A
:1014E000682C0020642C00203707010070B5084DDF
:1014F00004462E680BF0ECFC014630460BF07CFDF8
:101500002868044944F00042BDE870400BF006BD75
:10151000642C0020007F876170B5094D04462E6859
:101520000BF0D6FC014630460BF066FD44F020423D
:1015300028680449BDE8704042F400020BF0EEBC9C
:10154000642C0020007F876170B505460BF0C0FC5D
:10155000064E0446014630680BF04EFD04F4E021CF
:1015600030682943BDE870400BF07ABD642C002040
:10157000F8B51C4E0C46376805460BF0A9FC014631
:1015800038460BF039FD04F00303012B17D0022B72
:10159000154B18BF4FF00043E10648BF43F04043EE
:1015A000220612D504F00C04082C0AD00C2C14D0FE
:1015B000042C0AD143F0004343F4C02305E00B4B55
:1015C000EAE743F0004343F4A0233068084945EAC2
:1015D0000302BDE8F8400BF0A1BC43F0004343F424
:1015E000E023F2E7642C002000400080002000800F
:1015F00000600740074BD3F8D020C240D2074CBF51
:10160000D3F88030D3F8C03023FA00F000F00100A6
:10161000704700BF00200240014601480FF0F6B8B5
:10162000742C002038B5064B1C68054604B938BD3B
:10163000A068284002D0636803B198472468F5E7A2
:10164000742C0020024B00221A60FFF73BBF00BF42
:10165000742C0020813801289DBF024B1878C0B23D
:1016600000207047AA4B002030B5002085B00FF055
:101670007EF80E4C2060A0B100238DF80C300425BC
:101680000B4B00930195012303AA41210FF057F85A
:10169000084B40B11D7020680FF065F8064803F054
:1016A000EBFF05B030BD03221A70F4E7782C002060
:1016B000A64B0020AA4B00206012010030B5104B51
:1016C0001B78042B024617D1012815D80D494D78F7
:1016D0000B78CC78887842B903EB052044F2740388
:1016E00058430014A0F57A6030BD00EB042042F2AC
:1016F000107358430014F7E74FF0FF30F4E700BFD2
:10170000AA4B0020A64B0020F0B58028274C85B0BE
:1017100004D081281CD0207805B0F0BD244B254E84
:1017200000251D6028460FF022F8306058B30E23C4
:10173000CDE90055ADF80C3003AA022341210EF08B
:10174000FEFF054630680FF00EF8E5B101231BE0FF
:101750002378002BDFD021B340F20F130020ADF827
:101760000C300FF004F8134F386060B10025CDE95C
:101770000055022303AA41210EF0E1FF0646386816
:101780000EF0F1FF16B903232370C4E70A4B0B4A8E
:101790001B6800930A482B460321FFF71DFC022318
:1017A000F2E70748FFF756FCD0E700BFAA4B00203E
:1017B000A64B0020782C0020A031002069160000E4
:1017C0007C2C0020082910B519D80E4A00238B4222
:1017D00008DB0D4B19440138994201F1FF3208D161
:1017E000002010BD9C5CFF2C01D10133EFE7054BBD
:1017F000F0E711F8011C00F8011F1146ECE74FF06B
:10180000FF30EEE7C84F0050F0120050C20708D575
:101810000B4A1378527803F1804303F508336AB911
:101820001A70830709D5064A9378D27803F180436A
:1018300003F5083302B101221A7070470122EFE765
:10184000BE17010010B5064C2078FFF765FEA078A2
:10185000FFF762FEBDE810400320FFF7D7BF00BFCF
:10186000BE170100C2070DD50F4A104B1178D3F8EF
:10187000803001F18042CB4002F50832DB4303F0B7
:101880000103137083070DD5074A084B9178D3F8ED
:10189000803001F18042CB4002F50832DB4303F097
:1018A00001031370704700BFBE1701000020024003
:1018B00010B50948094CFFF7B1FB084800F03AFAA7
:1018C000014601B910BD0B7A5B080B72204600F08F
:1018D0000BFA0146F5E700BF5C2D00206C1C0020D0
:1018E000014601480FF03BB86C1C0020F8B531F000
:1018F000020307460E46144601D006292DD11C4886
:1019000039460FF02CF8054628BB36BB184833463D
:101910000822394600F05CFA0546F0B147F6FF733D
:10192000C3800EF0D4FC2B7A28602344102BA8BF70
:1019300010232B72022E284608BF0C340EF02CFF09
:10194000AB8800284FEAC414A4B214BF0A2219229B
:1019500023B9AC8001E0062EE3D1F8BDC2F16401E9
:10196000544303FB01446423B4FBF3F4F1E700BFE9
:101970006C1C002038B50546042000F017FD2946F0
:1019800004B21D480EF0EBFF034648B91A4808227E
:10199000294600F01DFA034648B347F6FF72C2809D
:1019A000B3F9062047F6FF718A4209D004EB84049C
:1019B00064005A2012FB0044642294FBF2F424B227
:1019C0009988DC80224691B947F6FF718C420FD08E
:1019D0005A3212B222EAE2721E2AA8BF1E22D20195
:1019E0001E21B2FBF1F202F5807292B29A8038BDEC
:1019F0004FF48072FAE700BF6C1C002038B508482D
:101A0000074D00F097F9044604B938BD2146284631
:101A100000F036FA2146284600F066F90446F3E75E
:101A20006C1C002007B50021074800F045F9074B62
:101A3000074A1B680093074800234FF4E131FFF782
:101A4000CBFA03B05DF804FB6C1C0020A031002031
:101A5000B11800005C2D002000B58BB00246282193
:101A6000684607F039F96946024800F0ADFD0BB051
:101A70005DF804FBEE16010070B5054688B9BDE8B7
:101A80007040094800F0A0BDE30702D42E200EF0FC
:101A9000CEFF295D3046013400F096FD082CF3D1CD
:101AA00070BD024E0024F4E7C2170100D1170100F7
:101AB00008B5034B5B689847024B187008BD00BF20
:101AC00018140100AB4B0020034B197806204A1C68
:101AD0001A7000F065BC00BFAB4B0020F8B50EF0EB
:101AE000F6FB114D074600242E460C2000F06CFC3E
:101AF00029460EF068FE78B1062006EB041400F0CB
:101B000055FC237B83420CD1A068381AB0F5206FB6
:101B10008CBF00200120F8BD0134102C05F1100508
:101B2000E3D10020F7E700BF7C2D0020F8B5184D69
:101B300000242E460C2000F047FC29460EF043FE00
:101B4000013418B9102C05F11005F3D1651E06EB10
:101B50000413A3F110077DB9062000F027FC3073B1
:101B60000EF0B5FBB0600C2000F02EFCBDE8F84094
:101B7000014607480EF022BE013D203B3C46186856
:101B80005968224603C20833BB421446F7D1E0E746
:101B90007C2D002030B1054B9B68C01A044B80108F
:101BA000584370474FF0FF30704700BF801C002043
:101BB000ABAAAAAA38B50B4B0B4D1C68002818BF5E
:101BC000054614B94FF0FF3038BD211D28460EF0F0
:101BD000FAFD20B12046BDE83840FFF7DBBF24689E
:101BE000EFE700BF9C2E0020F015010008B502466B
:101BF0000EF08EFE431C1FBF044B185C1368184187
:101C000014BF00F00100002008BD00BFCC4B002035
:101C10002DE9F843DFF86C8004460E46002758F89B
:101C2000042BA2B1D2F80890B9F1000F0FD02046D2
:101C3000FFF7B0FF014610460EF060FE0146054674
:101C40001046FFF7D3FF012801D12846C8470137C6
:101C5000082FE4D12046FFF79DFF0B4B00221A54BA
:101C60002046FFF797FF094B21461A5408480EF00B
:101C7000BAFD2EB121460748BDE8F8430EF00CBE70
:101C8000BDE8F8837C2E0020CC4B0020AC4B00201C
:101C90009C2E0020801C002050B10368072B06D822
:101CA000044A52F823301B1A58425841704700200A
:101CB000704700BF7C2E002010B50446FFF7ECFFF4
:101CC00010B1A160012010BD054A1368072BFAD896
:101CD000581C1060034A2360A16042F82340F1E7DA
:101CE000602F00207C2E0020F8B5114B9E68054621
:101CF0000C460C27214628460EF00AFE431C14D041
:101D000007FB00F3F01800D0F058FFF743FF01463F
:101D100028460EF0F3FD044628B101462846FFF799
:101D200065FF0028E6D02046F8BD0020EDE700BFA3
:101D3000801C002038B50B4B05461868FFF72AFFBA
:101D4000014628460EF0DAFD044601462846FFF714
:101D50004DFF28B921462846BDE83840FFF7C4BFEB
:101D6000204638BD9C2E0020F8B50D4617460EF0D3
:101D7000F6FD044620B10024012007B13C60F8BD07
:101D80002846FFF717FF0130F5D10E480EF0A8FDE9
:101D90000028F0D10C4B0D4E1D681DB9201E18BF38
:101DA0000120EAE72846FFF7F5FE335C13B9291D49
:101DB00014B90C462D68F0E720460EF0D8FE044614
:101DC000F8E700BF801C00209C2E0020AC4B0020B8
:101DD0002DE9F3410D46074620B90024204602B004
:101DE000BDE8F081224B002908BF1D4601AA294603
:101DF000FFF7BAFF0028F0D02846FFF7DBFE421CB1
:101E0000064625D11B4EDDF8048030460EF030FD2D
:101E1000044688B9B8F1000FDFD04046FFF7CAFE8C
:101E2000431CDAD0B4680C2303FB0044002CD4D04C
:101E300000212046FFF7ECFE0F4821460EF0E6FC9D
:101E40002046FFF7A7FE29460646201D0EF0B6FCE9
:101E5000314638460EF052FD7A68044600210FF0F4
:101E600010F901232246394604480EF05CFDB5E71F
:101E7000F0150100801C00209C2E0020CC4B00207F
:101E800070B50A4604460D460023014605480EF08B
:101E90004AFD002306462A46214603480EF043FD2C
:101EA000304670BDCC4B0020AC4B00200A460123CD
:101EB000014601480EF037BDAC4B00200A46002316
:101EC000014601480EF02FBDAC4B002008B50EF0C6
:101ED0001FFD431C07D0054B9B680C2202FB003002
:101EE00000B1043008BD0020FCE700BF801C0020CA
:101EF00070B50C4B1C6805460E460CB9204609E02F
:101F0000012D08D1A3680BB92468F6E7304698473D
:101F10000028F9D070BD002DF6D16368002BF3D0F6
:101F20009847F5E7642F002070B5068804461546EB
:101F3000D6B11E2E36D1882932D11C4B9A422FD1D0
:101F40001B4E1C4A33681C491C480133336000F0A7
:101F50003BFB31681A4800F037FB0020FFF782FC9A
:101F600028460EF0FCF919E0124A1349134800F014
:101F70002BFB4FF40031134800F026FB0D4A0E49AD
:101F80000E4800F021FB4FF480710F48324600F0FC
:101F90001BFB06484FF480710EF0D8F91E232380F6
:101FA000012002E000230380032070BD6C2F00207D
:101FB000682F0020D6170100701601007516010069
:101FC00041180100DD17010009180100014B1878C4
:101FD000704700BFDC4B00202DE9F041234C2378F3
:101FE000042B86B01FD100200EF0C1FB204D2860CD
:101FF00010B90523237016E0012605AB4FF0020847
:1020000000270093CDF80480334603AA44218DF8BD
:102010000C60ADF814700EF092FB38B905232868F7
:1020200023700EF0A0FB4FF0FF301CE00DF1160303
:1020300000932868CDF80480334604AA44218DF823
:102040001070ADF816700EF07AFB064628680EF098
:102050008AFB002ECDD0BDF816305BBAC3F30B005F
:10206000C3F30333984006B0BDE8F081DC4B002099
:102070007C2F002030B5002085B00EF078FB1A4C84
:10208000206020B9194B05221A7005B030BD02221C
:1020900001920DF10E02012300250092442103AAB2
:1020A0008DF80C30ADF80E500EF049FB30B90F4BE7
:1020B00005221A7020680EF056FBE6E7BDF90E30D7
:1020C000002B06DA094B0A4804221A7003F0D4FAEE
:1020D000F0E7084B084A1B68009308482B4610217C
:1020E000FEF77AFFE6E700BF7C2F0020DC4B0020E4
:1020F00078120100A031002075200000802F002000
:1021000030B5002885B04FF0000041F2C20408BF8E
:102110004FF486540EF02BFB0F4D286038B90F4B4F
:1021200005221A7005B0BDE830400EF01CBB01233B
:102130008DF80C3010238DF80E300023CDE90033DC
:1021400003AA032344218DF80D400EF0F8FA286805
:102150000EF009FB05B030BD7C2F0020DC4B0020C9
:10216000802813B50C4604D0812806D0002002B088
:1021700010BD0D4B01221A70F8E771B10120FFF775
:10218000BFFF0A4B0A4A1B6800930A48002310212C
:10219000FEF722FF044B0222EDE70648FEF75AFF46
:1021A0002046FFF7ADFFE1E7DC4B0020A031002027
:1021B00075200000802F002010B507490B8883424E
:1021C000A1BF064C228812FA80F2181AA3BF088019
:1021D00022800120002010BD4E44002050440020E9
:1021E000014B1880704700BF4E44002000487047E4
:1021F000A02F0020014B1888704700BF4E440020DC
:10220000034A044B10781B881844C0B2704700BFC3
:10221000DD4B00205044002008B5FFF7F1FF014BD3
:10222000184408BDA02F0020F8B50C4B1E780C4BAD
:102230001F88F519802D04460DDC324609490EF041
:10224000F8FEFFF7E9FF344401463A4620460EF017
:10225000F0FE2846F8BD0025FBE700BFDD4B00205F
:102260004E440020A02F002008B5FFF7C9FF024B05
:102270001B88184480B208BD4E44002010B50146AA
:10228000FFF7F2FF4218802A13DC431E0A481AB2F5
:1022900000FA83F3481C002A05DA084B1878014439
:1022A0001970012010BD13F801491C54013A12B2F3
:1022B000F1E70020F6E700BFA02F0020DD4B002053
:1022C00038B5094D094C0A48182200210EF0D9FEF4
:1022D000294620460EF072FA294604F10800BDE8AE
:1022E00038400EF06BBA00BFF015010052440020D8
:1022F00062440020044A00231380044A1380044AE5
:102300001370FFF7DDBF00BF504400204E44002093
:10231000DD4B002038B50C460546FFF7EBFF802C5F
:1023200028BF80242246294603480EF082FE034B34
:102330001C80204638BD00BFA02F00204E44002046
:1023400010B5094B03F1180253F8044B40F8044B45
:102350009342F9D1054B03F1100253F8040B41F8F5
:10236000040B9342F9D110BD624400205244002076
:1023700010B5094B00F1180250F8044B43F8044B18
:102380009042F9D1054B01F1100251F8040B43F8CA
:10239000040B9142F9D110BD624400205244002048
:1023A000014B23F81010704762440020014B33F8B2
:1023B0001000704762440020024B0C3803EBC00051
:1023C0000EF0FCB952440020024B0C3803EBC00065
:1023D000704700BF52440020014902480EF0F3B993
:1023E000F01501005A44002010B5184B18481B780E
:1023F0004FF080540121D4F8D8315B689847D4F865
:10240000D83113481B680122114698470BF01EF87B
:1024100010480AF0C9FB00B1FEE70DF02CFFFFF7F2
:1024200011F9FFF70FFA06200EF0ACFA0CF000FCE1
:1024300009F0AEFF0BF0E6FC0CF0D4FB07200EF029
:10244000A1FABDE8104006F005BD00BF085300200A
:10245000004003400811010008B503F079F905F0C8
:1024600069F908210448FFF7ADF9FEF729F9BDE83D
:10247000084006200EF086BA444400202DE9F043BF
:10248000082185B000250DEB0100CDE90055CDE90F
:102490000255FFF797F9BDF80E403D4E64BAF76A52
:1024A000A4B24AF6CD310220B84721460320B847EE
:1024B000384C736B08220DEB02010C2098472368FF
:1024C000032B2FDD344A3549354800F07DF8354877
:1024D0004DF20B52294600F077F82368032B21DDDB
:1024E0002D4A2E492E48304F304D00F06DF80DF03A
:1024F00059FB10F0040F14BFB846A8460DF052FB6C
:1025000010F0080F14BFB946A9460DF04BFB10F0B0
:10251000020F18BF3B46264808BF2B464A46414695
:1025200000F052F82368022B07DD1B4A21491C48A2
:1025300000F04AF820480EF07CFAB56A694601209E
:10254000A8472368022B08DD1A49134A144800F0F3
:102550003BF80099194800F037F801A90220A84774
:1025600030B92368022B09DD0199154800F02CF8D9
:102570002368022B02DD0A200EF059FA00211148CF
:1025800000F01EF907200EF0FDF905B0BDE8F0835C
:10259000881201007C1C002085180100BA16010079
:1025A00075160100931801007E18010082180100C1
:1025B000AA18010070160100D5180100F6180100D4
:1025C00005190100F01D00200FB407B504AA054845
:1025D00052F8041B019204F0E1FB03B05DF804EB38
:1025E00004B070479C1C002038B5836804460D4633
:1025F0009BB10A4804600220A07304F10C009847C4
:102600000238012801D9832D05D121462046BDE895
:10261000384000F005B80123A37338BDA031002075
:10262000F8B51B4D2B680446A34203D003B9F8BD8F
:102630001B68F9E7002CFAD0164EA37B37684BB124
:10264000A3683BB18C4205D034600022832104F1A1
:102650000C0098472B68A34206D123682B60A37B0C
:1026600053B93760E3E71346002BF8D01A68A2424B
:10267000F9D122681A60F2E70023A3732D68002DB8
:10268000EFD02246872128460EF0C0F9F6E700BFBA
:10269000A4310020A031002038B5094B00221A7067
:1026A000084B1C68012504B938BDE37B2BB1E581DB
:1026B000002282212046FFF797FF2468F3E700BF3E
:1026C000E14B0020A4310020034B1878FF281ABFEB
:1026D000421C1A7080207047DF4B0020014B8B2278
:1026E0001A707047DF4B00202DE9F0411B4E337804
:1026F0000BB1FFF7D1FF1A4D2C78ACB11949DFF8B7
:1027000068C00B780C225A430CEB02000133077AA5
:1027100040685CF8028003F01F03013C0B702C70D2
:1027200098B9124B1C682CB930782B781844C0B279
:10273000BDE8F08133780BB1FFF7AEFF204642468B
:1027400039460EF063F92468EDE7812F04BF0123B9
:102750008373424639460EF059F9E5E7E14B002014
:10276000E04B0020DE4B002020300020A431002070
:10277000F0B50B4D2C78202C0FD00A4B0A4F1B784C
:1027800023440C2603F01F037343FE180134FA5050
:10279000706031722C700020F0BD0120FCE700BF9A
:1027A000E04B0020DE4B00202030002038B5034CE9
:1027B00025680EF02BF9256038BD00BFA031002040
:1027C00010B40A4609490C68234683420CD04BB921
:1027D00050B1046008600121817310BC83818121A4
:1027E000FFF7E4BF1B68F0E710BC7047A43100207E
:1027F00038B1837B013B012B9FBF024A0123C37386
:1028000013707047E14B0020034B588880B2831E41
:1028100058425841704700BFE41C002059B10D28B0
:1028200007D1042A07D1054BD3F804310B600020EF
:102830007047012070470220704700BFA831002078
:1028400038B5104D95F8FC3004460BB102F082FC0F
:10285000C823634303F552234FF47A7203F695338A
:10286000B3FBF2F102FB11331B04B3FBF2F3064A94
:1028700088B29BB2D081138202F0CAFC08B9A5F8D5
:10288000FA4038BDA8310020A41C002070B5194CB6
:1028900063889BB2022B28D063889BB2012B06D0A1
:1028A000002002F079FDF0B144B2204670BD002551
:1028B00002F0AAFB6FF03F06361A63889BB2022B28
:1028C00003D002F0A1FBC642F7D463889BB2022B6F
:1028D0000DD1094B186809F099FB0446002DE4D08E
:1028E00002F0BCFDE1E70125E2E70025F1E7012464
:1028F000DBE700BFE41C0020A831002013B50191E4
:10290000002976D0192876D8DFE800F00D16757505
:102910002E5D3B494D5575597575755D60626775DE
:10292000757575757571354B93F8FC30003B18BFA4
:1029300001230B60002022E03148C389008A9AB24B
:102940004FF47A744FF6FF7380B204FB003004FB3F
:1029500002F3A3F55223A3F6953303EB1043C822E9
:10296000B3FBF2F3DBB2E4E7244B002008601B79F1
:10297000002BDFD0019A136843F00403136002B008
:1029800010BD204B19681D4B01AA18680EF05FF9A5
:1029900018B9019B1B687F2BCCD10320EFE7174BA5
:1029A00093F9F830C5E7FFF771FF019B1860019BB1
:1029B0001B688033F0E7114B93F90031B9E70F4BF7
:1029C00093F80131B5E700200860D8E72123B0E78C
:1029D0000C4B1B6893F90030ABE70B4B094A1B68A3
:1029E000126803EB8303134413F9053CA1E77D232D
:1029F0009FE70220C3E70120C1E700BFA831002004
:102A0000A41C0020BC130100C013010010B5054C2C
:102A100094F8FC3023B102F06FFB002384F8FC3003
:102A2000002010BDA83100207D2908B50A4605D830
:102A3000014603480EF0FDFA002008BD0120FCE726
:102A4000DE3100202DE9F84389468046FEF778FB09
:102A5000054602F0D9FA284C241A2B79022B03D10F
:102A600002F0D2FAC442F8D42B79032BDEB204D19F
:102A70002F89052F03D8FEF769FB002039E0BC1F22
:102A8000A4B24C45F7D80A352246294640460EF0F6
:102A9000D0FA2B57DFF864800A2B88F800316FF0EA
:102AA0006302A8BF0A239342B8BF13466433053FAD
:102AB0005BB2BFB26E22C3EB0323B3FBF2F388F821
:102AC0000131E85940F6C82100F07EFA98F8043048
:102AD000C8F8040153B998F90011042089B2FFF72E
:102AE0005FFC98F801113046FFF75AFCFEF72EFB09
:102AF0002046BDE8F88300BFA2FAFFFFA8310020FE
:102B000010B5094C94F8FC300BB9002010BDFFF74C
:102B1000BDFE10F1800FF8D094F9F8308342CCBF9D
:102B200000200120F2E700BFA831002010B5084CBA
:102B300094F8FC304BB9FEF7E7FA012002F02CFCC8
:102B40000346012013B984F8FC00002010BD00BF2B
:102B5000A831002038B5072855D8DFE800F0041266
:102B6000545433471E50012906D1FFF7DFFF08B93F
:102B7000002000E0032038BD002946D1FFF746FFC2
:102B8000F6E7234B88B22228B3F8FA3028BF1A2080
:102B90008342EDD0FFF754FEE9E71E4B4AB21968B5
:102BA00091F90030934230DC1B4B1B6803EB83032D
:102BB0000B4413F9053C934227DB154B18680EF0C4
:102BC00038F8D4E731F004051FD1114B1A79C1F35D
:102BD000800494421C71CBD093F8FC30002BC7D0FA
:102BE00002F03CFC284602F0D7FBC0E731F00100C0
:102BF0000BD1074B01F0010483F8FD40BBE7044B08
:102C000083F8F810B4E70120B5E70220B3E700BF6E
:102C1000A8310020BC130100C013010010B5FEF75D
:102C20008FFA002403461A791B68023A012A98BFDA
:102C300001349842F7D12CB1034B1B7913B90348E7
:102C4000FFF7D6FD204610BDA8310020E01D002072
:102C500030B52D4C2D4B236321682D4B89B01C6062
:102C600000294CD12B4A2C4D84F8FC10A62384F863
:102C7000F830137E23F00F0343F00803137640F27D
:102C800062331384052382F82430244A1023D3733B
:102C9000234B9361C5E90431AB699B0D9B0543F45C
:102CA000801343F08303AB610220FC23AB77FEF774
:102CB000FDF904F1EC03A86201A8EB6209F094F9B4
:102CC0004FF4FA6301A8019302F07EFA2060C8B1C4
:102CD0001A20FFF7B5FD134B7E21186809F040FA62
:102CE000114BC0F315029A42014602D0206809F048
:102CF0009FF900F051F90D480021FFF761FD002018
:102D000009B030BD0120FBE7A831002009280000F0
:102D100024350020BC1C0020E41C0020141D0020D1
:102D20004E905500BC130100FFFF3F00E01D002046
:102D300008B50C4B5B889BB2022B11D0FFF7A6FDA8
:102D400010F1800F0AD0084B93F9F8308342CCBFC2
:102D500000200120B0FA80F0400908BD0220F9E708
:102D60000020FAE7141D0020A83100207D2870B54E
:102D7000044620D8114D6B889BB2022B1BD0104EFD
:102D800096F8FD308BB9231D86F83430002386F881
:102D90003530A31C9BB22B8220460A4BEB6102F01C
:102DA0008FFA003818BF012070BDFFF7C1FF00285F
:102DB000E9D10220F8E70120F6E700BF141D00204A
:102DC000A8310020DC31002010B50C4C237833B939
:102DD0000B490C48FC220EF02CF9012323700A4BFE
:102DE000002283F8202001229A7402221A750322FD
:102DF00083F82F20042283F8232010BDE24B00200B
:102E0000C01201004C4000210004002108B5044814
:102E10000DF01EFDBDE8084002480DF019BD00BFD1
:102E20006C1D0020601D002001480DF059BD00BF41
:102E3000601D002038B50E480DF01AFD054650B152
:102E40000C480DF015FD0446286030B929460848A5
:102E50000DF022FD2546284638BDFFF7E5F904F1BF
:102E60009A01A4F8800004F18200FFF769FAF2E702
:102E7000601D00206C1D002010B501460446074867
:102E80000DF020FD48B1216805480DF005FD2146F3
:102E90000248BDE810400DF0FFBC10BD601D0020D1
:102EA0006C1D002010B50146044609480DF00AFDCE
:102EB00068B12468B4F880102046FFF72BFA04F1BB
:102EC0009A0104F18200BDE81040FFF751BA10BD2D
:102ED000601D0020054A82B0106851686B4603C32C
:102EE000034BDDE900011B6802B018474444002091
:102EF000181401002DE9F041174E33681B6B9847F9
:102F000080F0010010F0FF0505D0336840F60101A4
:102F1000186809F077F808F023F8104B104F1A786A
:102F200004464AB100221A703C609DB13368BDE886
:102F3000F041186808F0F4BF3B688342F4D9D6F832
:102F4000008002F061F83268C8F82800D36A0133C3
:102F5000D362E9E7BDE8F08124350020F11F0020AD
:102F6000D032002007B5FFF7C5FF074B074A1868A6
:102F7000074B08491B68009308300023FEF72CF824
:102F800003B05DF804FB00BF24350020652F00006E
:102F9000A03100206F0C010007B5FFF7ABFF074B16
:102FA000074A1868074B1B6800934BF2F421002373
:102FB0000830FEF711F803B05DF804FB243500205B
:102FC000652F0000A0310020F8B5104F04460E46D2
:102FD000FFF790FF3B68B4F1404FDD6A08D902F07B
:102FE00013F83B689A6A0A4B9B1AC34200D5013D0D
:102FF000A41945EBE6752D0243F609520023200281
:1030000045EA1461FDF7ECF8F8BD00BF2435002057
:103010008690F3FE70B5154E337805460C46C3B95D
:1030200004F0A6FC124BADB91A4600F1100150F89D
:10303000045B42F8045B8842F9D184B90D490C481D
:103040000DF00DFF0A480122002104F03BFD012391
:10305000337070BD2A681A606A685A60EDE7A2682A
:103060009A60054BE2685A60ECE700BFF34B002022
:10307000CA49002072520020D249002013B5002115
:103080000846FFF7C7FF0024154B224693F820108F
:1030900059B193F82110012907D1197CFE2902D1D9
:1030A000597C802901D003F110040132032A03F175
:1030B0001C03EBD1204604F0AFFC04B968B101F069
:1030C000BBFE4023024600930020214600F012FB85
:1030D00000F05CF9002002B010BD4FF0FF30FAE7BD
:1030E00054370020044B187B28B1B3F84E00DB8A1C
:1030F000C31A584258417047D43200202DE9F84392
:103100001C4CDFF87490904607460E464FF4B072A0
:10311000002120461D460DF0B4FFB9F8203043458C
:1031200002D00020BDE8F8839DF8242008992846A5
:1031300001F0CEFE0028F4D0F023E37301232373C3
:103140004FF0FF33E364A4F850304FF2F003A4F8DB
:1031500058306773C4F8089033461C3406F11005E4
:1031600018685968224603C20833AB421446F7D1A7
:103170000120D7E7D4320020A81D002013B5437DDD
:10318000012B044602D9002002B010BD90F8513046
:10319000019390F850300093028A00F13C030146FD
:1031A000007EFFF7ABFF0028EDD0144B627D9A73D1
:1031B000626D1A60226A5A61227F9A74627F1A765F
:1031C000E28B618B5A83002283F85C201982A17DF7
:1031D00083F85410217D83F85310E17D83F8521059
:1031E00083F855209B681B689847054801F032FC1E
:1031F00001F012FD01F04AFD0120C5E7D4320020A4
:103200001419010030B50A4A137B7BB168B102F191
:103210001C0503462C322C4603CC9442186059609E
:10322000254603F10803F6D1012030BD1846FCE71E
:10323000D432002010B5FFF755FF104C60B994F858
:103240005820531CDBB2120658BF03F07F03002046
:1032500084F8583001F09AF8FEF7D0FB01F064FAD8
:1032600005F09EF901F03AFD94F841305B0602D575
:10327000034801F019FE0023237310BDD43200204F
:1032800000330020024B032283F85C2001F048BD8C
:10329000D432002008B50F4B1A7BD2B19A6C511C66
:1032A00017D0824208D800229A64032283F85C2057
:1032B000BDE8084001F034BD121AB2F5967F9A6459
:1032C00007D2586C28B10DF061FCBDE8084000F051
:1032D00059BF08BDD432002008B5074B0146187B02
:1032E00048B193F8402003F11C00D2080DF091FE84
:1032F000B0FA80F0400908BDD432002010B50A4C65
:10330000237B83B1FFF7EEFE08B984F85C00A36865
:103310001B68984701F008FA044801F09BFBBDE8E0
:10332000104001F0FDBC10BDD4320020191901007D
:1033300008B5FFF7D7FE88B1094A0A4892F852103B
:103340004B1CDBB2090658BF03F07F0382F85230F2
:10335000F023D373BDE80840FFF7D0BF08BD00BF1E
:10336000D432002026190100074B9A7B187B1AB92A
:10337000003818BF0120704728B193F85C0001287D
:1033800094BF002001207047D43200202DE9F04185
:10339000454C237B002B00F0848004F16400B4F8DA
:1033A0004E50FDF757FE94F85C30032B12D10020ED
:1033B00001F096F94FF6FF739D42A4F84E3004D009
:1033C0003A4801F047FB01F061FCA368BDE8F04119
:1033D000DB691847FFF786FE07460028F5D1666CC3
:1033E000DFF8CC8001F0C6F901F07AF9606C01F0E9
:1033F0002DF9A4F84E00D8F80000FEF79BFC054616
:1034000088BBB4F84E201EB1B4F84C30934201D9B9
:10341000A4F84C20B4F850304FF6FF718B420DD019
:103420008A420BD0D31A002BB8BF5B42B3F5007FA2
:1034300004DD2048A4F8502001F00CFB94F85B3028
:10344000002BC2D0636C13B33EB901231A4884F831
:103450005C3001F0FFFA01F007FC01F025FB0023CE
:1034600084F85B30B1E7284601F0F0F8B4F84E304C
:1034700083420AD92B6813B90CF029FF2860D8F8C9
:1034800000002946FEF730FCB9E72F60F7E7074850
:1034900084F85C3001F0DEFA01F082FA01F0F6FB0C
:1034A000DDE7BDE8F08100BFD4320020341901000F
:1034B000CC1D0020421901005A1901002DE9F041EC
:1034C000544C237B07460D46F3B1627B2B7E9A4218
:1034D00020D15148102229460DF09BFDD0B96A8AAF
:1034E000E38A9A420CD3E97D94F852000DF086FBF2
:1034F0006B8AB8B1E28A934202D1484801F0AAFA35
:10350000BDE8F041FFF742BFFFF7ECFD20B1237BA0
:10351000002BDAD1BDE8F0812846FFF72FFE002806
:10352000F5D1F7E74FF6FF72934218BF94F8573082
:1035300094F852101CBF013384F85730E87D0DF029
:103540005DFB50B1B4F84E20E38A9A424ED1EB7D38
:10355000334884F85230FFF7EBFE2A460121384603
:103560000DF0B8FA0028CBD0384601F0F5F8064641
:1035700000284CD090F80680384601F0EDF868B984
:1035800038460DF032FC01460028B9D025482B46BC
:1035900000680122FEF71CFC0028B1D06B8A8380F2
:1035A0006B7E8371A36C1BB13EB1636C9E4204D1F0
:1035B000638B4FF4F0725343A364A37B002B9FD023
:1035C000002E9DD0636C9E429AD1687E41460DF0DC
:1035D00015FB002894D0E27B531CDBB2120658BFC7
:1035E00003F07F03E37301F05FFA89E7FFF77AFDE9
:1035F00006460028B1D101F071FB304601F070F8A9
:103600002846FFF7BBFD0848FFF778FEA5E74FF017
:10361000F008B1E7D4320020F03200206519010033
:1036200081190100CC1D00202619010010B50A46A1
:10363000044621B1BDE81040064801F00BBA032151
:103640000DF048FA20B12046BDE8104000F0B6BDAC
:1036500010BD00BF9A19010038B5054691F8230046
:103660000C4668B90A4629460DF026FC94F9253027
:10367000002B13DA218C2846BDE8384001F02CBA23
:10368000FF281BBF064B5B8B4FF0FF3343430A46BB
:103690000020294604F0F2FE0028E7D138BD00BF23
:1036A000D432002070B5114C0D4694F859100646DE
:1036B0000DF0A4FA08B184F8596094F85830B34278
:1036C00013D194F85C30012B6DB207D1002D05DBCE
:1036D0000223074884F85C3001F0BCF901F01EFABF
:1036E000002DBCBF032384F85C3070BDD4320020B1
:1036F000A81901002DE9F347234C9DF828A099460D
:10370000237B06460F469046002B3BD0102204F147
:103710001C000DF07EFC98BB94F852305D1C1B061B
:10372000EDB201D405F07F05FFF784FD4346CDE9F6
:10373000009A012239463046FFF7E0FC134A6261E5
:1037400001231E22A373227640F608433C222382E3
:103750006283002380220E48A374A4F84E2084F8CC
:1037600053304FF0FF32A4F85430022384F8525003
:10377000A26484F85C3002B0BDE8F04701F06AB999
:10378000F025D1E7F025D1E7D432002000048000F5
:10379000B219010002484FF4B07200210DF071BC63
:1037A000D432002010B5114B9A79C2B993F82A107F
:1037B000632914D193F8290098B993F82B20042A8F
:1037C0000ED10B4A117B71B1547B93F82D10A1429D
:1037D00006D1B2F84E2083F82D1052BADA850120B6
:1037E00010BD1046FCE70846FAE700BF5C3A00202F
:1037F000D432002070B51C4B044619881B482B227C
:103800000DF0E5FB06461A48FFF766FD08B90020F3
:1038100070BD1849002004F0FBFD15490546002045
:1038200004F0F6FD16B1B378032B06D00028EED0D5
:10383000002DECD04369AB42E9D10D4D224605F194
:1038400010062B4603CBB342106051601D4602F1B7
:103850000802F6D148F2FE03238000236380A38090
:10386000E3800120D4E700BF444B00205C3A0020F5
:10387000743A0020F03200202DE9F04F6D4B6E4875
:1038800019888DB02B220DF0A2FB044608B9002048
:103890007FE08378032BFAD190F803A0BAF1000FF0
:1038A00076D04378057942790133DB00DBB24FEA09
:1038B000151BA3EB121305F00F05C5F11006083B0D
:1038C000CBF110099B1B93FBF9F30133DBB29A4553
:1038D0004FEA121E0093DAD8DFF860C19CE80F00AF
:1038E00008AF87E80F006378E2780133DB00DBB2D2
:1038F000A3EB0E03083B9B1B93FBF9F30133DBB2F5
:10390000012A14BF594629469E1AACF118020392A7
:10391000A21A10320293F6B27B18049309FB06F741
:10392000C1F110034FF000080192521A05930837B5
:1039300043460692029AB2422ED8009BA3EB0A039A
:10394000DBB209FB03F9019B09F10809BAF1010F88
:1039500018BF5D464B445B1BB3F5A06F97D8374B40
:103960000FCB08AE86E80F00039BA144C5F11007FA
:1039700005F1180053FA80F03A4649460DF059FB1C
:103980003A46711948460DF054FBE378013BE37069
:1039900001200DB0BDE8F08F0793069BDA19B2F550
:1039A000A06F3FF674AF059A0498E1190DF041FB42
:1039B00008A804F031F8079B50B108F101085FFA3C
:1039C00088F86BB9B8F1010F3FF661AF012307E04A
:1039D00008A8079304F0C4F8079B0028EDD103461C
:1039E0009DF82020FF2A3FF452AFBDF82020E2B915
:1039F000BDF82400BDF82220BDF82E100243BDF80A
:103A000026000243BDF828000243BDF82A00024305
:103A1000BDF82C00024392B251EA02003FF437AFE6
:103A20001AB9B1F5807F3FF432AF0136F6B24F4498
:103A300080E700BF444B00205C3A0020743A00202D
:103A400000292DE9F04139DBCA0737D44378002B30
:103A500034D1425A40F263439A4200EB01052DD122
:103A6000184F3B7B53B37A7BEB789A4226D1AE78E2
:103A7000B30623D4144BAC88D3F800800C20FEF797
:103A8000A3FC014640460CF06AFF64BAB7F84E70DA
:103A9000A978A4B2A7424FEAD61694BF00270127FF
:103AA000BE42C1F380131CBF41F04001A97086EAF9
:103AB00007022146BDE8F0410CF0DEBF0020BDE862
:103AC000F08100BFD4320020CC1D00202DE9F3414D
:103AD000274E28483188274F01230DF107020DF0AA
:103AE00039FA0446002840D1012002B0BDE8F08137
:103AF0003188283989B238460DF023FA3288E31B21
:103B00009A4221DDD21A611920460DF0A0FA98F8E8
:103B100000308DF807309DF80730062BE4D0112BCC
:103B2000E2D03A2BE0D02B2B03D07BB9A378632BC8
:103B30000CD1237888F8003065780135ED006842B3
:103B400005F064F80028D3D10020CEE73188E31BCC
:103B5000C91A204600230DF1070289B20DF0FAF9C7
:103B600004460028C0D08046D5E707F10608D2E712
:103B7000444B00205C3A00202DE9F04F814F3B7B05
:103B800087B0BBB1804C228B48F2FE039A4211D021
:103B9000237EFF2B0ED0FFF7A5FA0546002800F084
:103BA000BB80FFF793FF04F11800FFF795FB04F1CA
:103BB000180908B901250EE04946002004F028FC48
:103BC00006460028F6D007F11C01002004F020FC76
:103BD000824620B90025284607B0BDE8F08F494647
:103BE000002004F029FC0028F4D07569DFF89CB1AE
:103BF0004FF000080F275FFA88F300930DB1AA4534
:103C000070D1009B624A5D1EC7F1100BC7F118030B
:103C100005FB0B35EBB215F007051CBFC5F1080518
:103C2000EDB212882B445FFA83F852FA83F3B3F5AE
:103C3000A06FCFDC574B1888283023184044194612
:103C4000283A204401930DF002FA019B424618469F
:103C500000210DF016FAA37984F828302B23A371E4
:103C6000B8F1080348BF08F1FF33DB1084F82930AE
:103C7000032384F82A30009B84F82B3007EB0713CA
:103C800084F82C302B0184F82D30434BA8EB05052C
:103C90001D443E4B02AC9B690093274473699A45CF
:103CA0000DD03146009B2046A5EB0B0598475A46A0
:103CB000394628460DF0BDF97669002EEED1009BFD
:103CC00031462046984794E80F0089E80F004046A7
:103CD00004F09CFF2E4B2C481988283989B20DF02E
:103CE00030F967E7DBF81830294602A898472B4AD5
:103CF00002A9002311F801CB12F8010B844505D06D
:103D00009F4207DA6D6908F1010874E70133102B4F
:103D1000F0D1F7E7DFB2F5E704F1080003F07CFE2D
:103D200058B31F4BE27993F806319A4225D1184EC9
:103D30003288B2F59F6F3FF64EAF04F12801283A62
:103D400004F130000DF083F9A37984F8283040F2B3
:103D50006343C4F829506385B7F84E30A5715BBA48
:103D6000E3857B7B84F82D30082004F04FFF3188F9
:103D7000283989B220460DF0E4F807B0BDE8F04FCD
:103D8000FFF710BDD43200205C3A0020C4130100BC
:103D9000444B0020424B0020843A0020743A00201B
:103DA0005437002008B50A48037B63B1094B0A4920
:103DB0001B88407B2C335A185B5C984203D1D17826
:103DC0009078FFF76FFCBDE8084004F067BF00BFC4
:103DD000D4320020424B00205C3A00202DE9F04311
:103DE0008FB02622002104A80DF04BF9434B444C20
:103DF0001E88444B217B06F12C02D718D25C8DF82B
:103E0000322031B3617B914223D108330FCBE84696
:103E100088E80F00102200210DEB02000DF031F9AF
:103E2000394B1D882C3DAD1BADB2032D11D9237E1E
:103E30008DF833307B78FA788DF835305B06ADF845
:103E400030200BD40426B54214DC04A94046FFF709
:103E500003FC04F023FF0FB0BDE8F083132DF8D965
:103E60001022391D04F11C000DF0D3F80028F0D108
:103E70001426E8E7BA5D344612B3731C9D42E8DDB0
:103E8000BB195B7802331E44AE42E2DC052A19D02E
:103E9000062AD8D1052BDCDD3A19132B52798DF87F
:103EA0003320D0DDA31D3B4404AC03F1100C186893
:103EB0005968224603C2083363451446F7D1C2E766
:103EC0000123E0E7032BC4DD3A1992F803908DF843
:103ED000349009F107094FEAE90909F104029A420D
:103EE000B7D11022002108A80DF0CBF8211D4A46B9
:103EF000394408A80DF09DF8A5E700BF424B00200B
:103F0000D43200205C3A0020444B00202DE9F047D9
:103F10009CB05C22002105A80DF0B3F840F60843E0
:103F2000ADF82E300123ADF824301E23864C8DF8D9
:103F300031303C23ADF83230844B0D9304F108034B
:103F40000FCB0DF1040888E80F00814A814B1788D8
:103F50001B882C3FFF1ABFB2172F31D92C331D19E4
:103F60001B5D8DF82C3002216B788DF82B302846A4
:103F70000CF0A5FD2B79ADF8260023F07F028DF81B
:103F80002820C3F3C20203F007038DF82A306B79AF
:103F90008DF82D308DF8292005F1080305AC05F1C9
:103FA000180618685968224603C20833B3421446FB
:103FB000F7D11824A74208DC05A94046FFF77EFA8E
:103FC00004F06CFE1CB0BDE8F0872B5DF3B1621C01
:103FD0009742F5DD2A195678023604EB0609B945F1
:103FE000EEDC023B062BEBD801A252F823F000BF17
:103FF0001140000073400000B1400000C13F0000CC
:10400000C13F0000C13F0000074100000126E4E776
:10401000052ED5DD2B191A7993F803C099788DF800
:104020006810D00940EA4C008DF86900C2F3011015
:1040300002F00F028DF86B205A798DF86A008DF826
:104040006C2049B1072909D1072EB9DDA11D2846E9
:104050000CF035FDADF86E004C46ABE70229AFD150
:10406000072EADDD9A79DB798DF86E208DF86F30F3
:10407000F2E7072EA4DD2B19211D93F802A0DB78AF
:104080008DF84D3028468DF84CA00CF003FD0AF158
:104090000702D210D31DB342129091DABAF1800F09
:1040A0008ED804F1080129440EA80CF0C2FFD3E712
:1040B000102E85D12B19A11DDA788DF82E201A79B2
:1040C0008DF82F2028465A798DF830200CF0F7FC17
:1040D00004F10801ADF8340028460CF0F0FC04F1BE
:1040E0000A01ADF8360028460CF0E9FC5B7BADF820
:1040F000240004F10E0128468DF831300CF0DFFC6D
:10410000ADF83200A8E7202E7FF45AAF2B199A7829
:104110008DF86420802A3FF653AFDB788DF8653048
:1041200004F1080128460CF0B5FC10342C4418901A
:1041300014AA04F1100620686168134603C308340A
:10414000B4421A46F7D187E75C3A002000048000A9
:10415000444B0020424B002008B5084B1B7B43B169
:104160000748017EA1F1FF03594259410830FFF78A
:104170005DFABDE8084004F091BD00BFD4320020D4
:104180005C3A002010B50446FFF700F9084B0949D6
:104190001B882C335818002242705A5406480223B8
:1041A000944218BF20469B21BDE8104003F066BF33
:1041B000424B00205C3A0020DA4900202DE9F0470C
:1041C0008046FFF7E3F800F0D1FD18B1B8F1000F19
:1041D00000F0CE80674B684A1B88684C2C339D18D2
:1041E000617B995494F852306B7000F0BFFD002849
:1041F00040F0B180B4F84E20614E022128460CF008
:1042000064FC94F8532094F85430A17B002A03F006
:10421000070318BF802243EAC10313432B71E37BDA
:104220006B710023AB71EB7105F1080206F1100709
:10423000334603CBBB42106051601E4602F10802B8
:10424000F6D100F093FD002840F090802278002AFB
:1042500000F08C8006236B766378AA765808E8769F
:10426000A078DB0143EA0013E07802210343072A28
:1042700029762B7772D16977E2881E2128460CF0C7
:1042800024FC2026AF190423AB550E237B70237C1E
:10429000FB70637C3B714FF0000AA37C7B71A28AA8
:1042A00087F802A0B11D28460CF00FFCE28A06F147
:1042B000080128460CF009FCA36806F10A011A8CD3
:1042C00028460CF002FC237E7B73628B87F80CA0DF
:1042D00006F10E0128460CF0F8FB94F8403006F188
:1042E000100943B3082205F809201E22BB7494F874
:1042F0004130FB7428467A7406F11401E26B0CF02D
:10430000D5FBE26B1F4C06F118010CF0CFFB06F158
:104310001C0345F803A006F120032B4404F110050B
:10432000224603CAAA4218605960144603F10803E2
:10433000F6D106F1300900F019FD20B9124BB8F1A1
:10434000000F08BF98464B4640460122BDE8F047A3
:104350009B2103F093BE4FF6FF724DE7022A07D16F
:10436000A379AB77E3796A77EB778AE7182689E751
:10437000BDE8F087424B00205C3A0020D432002098
:10438000F032002000330020DA4900202DE9F0410E
:10439000074600F051FD2C4D0446686C0CF0F6FB0E
:1043A0000646FEF7F3FF2B7B002B4AD06B6C002BED
:1043B00047D0002C45D0002E43D0AB7B002B40D003
:1043C000224B23491A88687B2C3253185054002200
:1043D00097420CBF11468021597095F85810D9703A
:1043E00005219A7019719A71122180225971DA711E
:1043F00003F10801224604F1100052F8044B41F881
:10440000044B8242F9D1134C5F7703CC06221A7613
:1044100014225A760022C3F81E00C3F822109A769E
:10442000DA761A77B268C3F82620F268C3F82A2031
:10443000A4F108002E23BDE8F04102229B2103F0E5
:104440001DBEBDE8F08100BFD4320020424B0020E9
:104450005C3A0020F032002070B504460E46154646
:10446000FEF794FF094B0A4A1B880A492C33981817
:10447000497B9954002343708670C57004232046FD
:104480000322BDE870409B2103F0F8BD424B0020A1
:104490005C3A0020D432002008B5074803F048FDFC
:1044A000064803F045FD064803F042FDBDE808401C
:1044B000044803F03DBD00BF9C1D0020901D00205E
:1044C000841D0020781D0020014B00221A707047C7
:1044D000D432002070B505460CF01DFB0B4B044692
:1044E000586C0CF018FB2B680646BF3443B10BF038
:1044F000EEFE2B68C01AB0F5963F01D9002070BDC2
:10450000B442B4BF00200120F9E700BFD43200203C
:1045100038B5044678B1094BDD8A0CF0FCFAA28864
:1045200053194FF6FF72934228BF1346834238BF98
:10453000034698B238BD4FF6FF70FBE7D432002037
:1045400070B50D46044648B30CF002FB061E18BFBA
:1045500001261DB128460CF0FBFA40B92EB9002403
:1045600003E02846FFF7B6FF30B1204670BD9EB18C
:104570000C4E736CA342F4D0736CAB4203D1204653
:10458000FFF7A8FF40B920460CF0C5FA06462846BA
:104590000CF0C1FA8642E8D32C46E6E70029DED0CB
:1045A0002646D7E7D432002010B500F047F828B1EE
:1045B000044B9B68BDE810405B6918474FF6FF70DD
:1045C00010BD00BFD432002008B50C4BD3F8282111
:1045D000824204BF0022C3F82821D3F8042182427A
:1045E00004BF0022C3F80421054B01461868FDF7FB
:1045F00047FCBDE8084000F093BB00BFD432002068
:10460000CC1D00204FF6FF71884210B510D00A4A29
:10461000D38A83420CD8948A64B1B2F84C302344D4
:104620008B4228BF0B469842CCBF0020012010BD12
:104630000020FCE70120FAE7D4320020024B0146BB
:1046400018680CF08CB900BFCC1D002020B1044BC1
:104650009B685B6903B118474FF6FF70704700BF56
:10466000D4320020024B01461868FDF72FBC00BF72
:10467000CC1D00202DE9F041174F3D7B064645B18A
:10468000DFF85880D8F80000FDF754FB00250446F9
:1046900014B92846BDE8F0812046FFF7D7FFFFF7A1
:1046A000B1FF58B1BB682046DB68984730B166B9A6
:1046B000BB6828469B692146984705462146D8F89D
:1046C0000000FDF711FB0446E2E720460CF06CFA0F
:1046D0000028EDD1F2E700BFD4320020CC1D00202D
:1046E00070B50F4D696C8142044618D00D4E30688C
:1046F000FDF7E4FB21463068FDF7D8FB686C0CF051
:1047000045FA03F0C7F803F0ADF820460CF03EFA86
:10471000002103F0D5F801236C6485F85B3070BD8F
:10472000D4320020CC1D002038B50A4D0020FFF700
:10473000D7FF2868FDF7FEFA044618B9BDE83840EF
:10474000FEF724BE2046FFF73FFF28682146FDF70D
:10475000CBFAF1E7CC1D002008B50CF0EBFA03F022
:104760005DF8034B01461868BDE808400CF0F7B847
:10477000CC1D002070B5FEF7B5FC064610B1002434
:10478000204670BDFFF776FF04460028F7D00CF0F6
:104790000BFA0C4D10B1C5F82861F1E7D5F82831B6
:1047A0001BB9C5F8284100F04BFA6B6CA342E7D067
:1047B0000120FFF75FFF18B96B6C002BE0D1DEE73B
:1047C0000446DDE7D4320020024B03491868FDF7A8
:1047D00073BA00BFCC1D0020C945000008B5024BCC
:1047E0005B68984780B208BD1814010008B5054BF6
:1047F000D3F804010CF0CAF918B1BDE80840FFF77E
:10480000DDBC08BDD43200200348002290F85C11C2
:1048100000F59670FFF720BED4320020024B1B7BC0
:104820000BB1FEF707BD7047D432002007B5044B2B
:104830001B6800930023FCF7CFFB03B05DF804FB7B
:10484000A031002008B5FFF7C9FF4FF42071B0FB7D
:10485000F1F303FB110000F5A071BDE80840024A26
:10486000024889B2FFF7E2BFA5480000B833002034
:1048700010B50B4C012384F85A30FFF7E3FF94F88E
:10488000583094F95820207E0133002AB4BFDBB29F
:1048900003F07F0384F85830BDE81040FFF776BD81
:1048A000D432002010B50B4C94F85A30207E0133DE
:1048B00084F85A30FFF76AFD94F85A30042B03D875
:1048C000BDE81040FFF7BEBFBDE810400248FEF74C
:1048D00015BD00BFD4320020BC19010038B5124DFF
:1048E00095F855408021A1404FF47A734FF4FA6453
:1048F000B1FBF3F3B1FBF4F42B66FFF76FFF2B6E04
:104900000A4A04FB00F14FF6FF70B1FBF0F12144BD
:104910005B1A2B660123A5F8563005F1A400BDE80B
:104920003840FFF783BF00BFD43200203149000078
:1049300010B5FEF719FD58B3164C94F85630CBB1AC
:10494000FEF7D0FB28B9A37C1BB194F857209A42FC
:1049500006D2B4F84E30A4F850300020FFF72EFCF9
:104960000023216E84F856300B4A0C48BDE81040F5
:10497000FFF75CBF627C217C94F855300A44934277
:10498000BCBF013384F85530BDE81040FFF7A6BF27
:1049900010BD00BFD4320020314900007833002020
:1049A00008B50B48FCF76CFB80B1FFF717FF4FF41D
:1049B0007061B0FBF1F303FB110000F5F061BDE89D
:1049C0000840044A024889B2FFF730BF08BD00BF63
:1049D000B4340020D949000008B5FEF783FB88B93C
:1049E000094B1A7B3AB15A6C2AB1B3F84E204FF6F4
:1049F000FF739A4206D10020FFF7C4FBBDE80840D0
:104A0000FFF7CEBF08BD00BFD432002010B50F4C59
:104A1000237B43B9FFF7C4FFFEF7B8FCBDE81040A5
:104A20000B48FCF7FBBA3C20FEF734FC3C2003F0BB
:104A300085FD237B002BEDD0636C002BEAD0B4F80E
:104A40004E204FF6FF739A42E6D1E3E7D4320020BE
:104A5000D434002010B5FEF787FC90B1094C94F8CF
:104A6000553013B1627C9A420BD200F07FF940B905
:104A7000637C84F8570084F85530BDE81040FFF798
:104A80002DBF10BDD4320020054B1A7B3AB1C3F8BC
:104A90000401044A002103F1C400FFF7C7BE7047B8
:104AA000D4320020ED47000010B5094C237B73B1D0
:104AB000A37B63B1FFF792FEC0F30801054A04F13E
:104AC000E40001F58071BDE81040FFF7AFBE10BDF6
:104AD000D432002071480000F0B40D4C227B034614
:104AE0000D469AB104F5967600F1100718685968DA
:104AF000324603C20833BB421646F7D1A4F85C51D4
:104B0000044A0548F0BC0021FFF790BEF0BC704796
:104B1000D4320020094800001034002010B50F4B9B
:104B20001A7BCAB1197EFF2916D05C8B4C43FFF764
:104B300055FE4FF4F053B0FBF3F202FB13001844A0
:104B4000E40180B2844288BF241A2146044A054801
:104B5000BDE81040FFF76ABE10BD00BFD432002090
:104B600071480000B83300202DE9F041284D0BF0CA
:104B7000AEFB2C7B804644B1D5F828412CB9686C3B
:104B800030B10CF011F818B96C6C2046BDE8F0811A
:104B9000FFF724FE0325B0FBF5F505EB4505451BA6
:104BA0001C4FADB23868C5B1FDF7C4F84FF6FF76BB
:104BB0000546002DE9D028460BF0F6FF38B9284607
:104BC000FFF744FD0CB1864201D906462C46294622
:104BD0003868FDF789F80546EBE7FDF7ABF80646C0
:104BE0000028D2D030460BF0DFFF60B930460BF022
:104BF000D4FF40B103681CB1A8EB0302AA4202D95A
:104C0000A8EB0305344638683146FDF76DF8E6E752
:104C1000D4320020CC1D002010B5074C237B4BB1B3
:104C20000BF0CBFF054A014604F58470BDE8104047
:104C3000FFF7FCBD10BD00BFD4320020D50B010032
:104C400010B5074C237B53B1FFF7C8FD054AC0F3ED
:104C5000080104F58470BDE81040FFF7E7BD10BD02
:104C6000D4320020D50B010010B5074C237B53B183
:104C700004F18400FCF704FA28B904F18400BDE8CB
:104C80001040FCF7E7B910BDD432002010B5094C34
:104C9000237B6BB104F18400FCF7F2F940B104F11D
:104CA0008400054ABDE810404FF41641FFF7BEBD31
:104CB00010BD00BFD43200201D48000008B5054AD1
:104CC00005484FF4F051FFF7B1FDBDE80840FFF78C
:104CD00067BE00BF0D4A0000D434002010B50F4C51
:104CE0002046FCF7B7F904F12000FCF7B3F904F112
:104CF0004000FCF7AFF904F16000FCF7ABF904F1F8
:104D00008000FCF7A7F904F1A400FCF7A3F904F173
:104D1000D800BDE81040FCF79DB900BF3833002033
:104D20000448037B23B1044A00216430FFF77EBDB1
:104D3000704700BFD4320020B70B0100044B187B32
:104D400020B193F85C00003818BF0120704700BF05
:104D5000D4320020044B187B20B193F85C00831EF2
:104D600058425841704700BFD4320020014B187898
:104D7000704700BFF44B002038B50D4610220021CB
:104D800004460CF07EF92A7D073229462046D208D7
:104D90000CF04FF920460249BDE838400CF05FB8EE
:104DA0007252002008B50E4840F2FF230380002312
:104DB00043808380C3800381438183814FF4D05338
:104DC000C38102F05DFEFEF7E5FCFFF7FDFCFFF797
:104DD00075FFFFF761FBBDE8084003F09FBB00BF14
:104DE000DA49002010B5094C237B012B0DD1FFF7C8
:104DF00025FC50B1D4F82831984204BF0023C4F8F0
:104E00002831BDE81040FFF78BBF10BDD432002021
:104E100010B50B46024648B149B1064C03CC1060B0
:104E20005160D96891601969D160012010BD0846B0
:104E3000FCE700BFF03200202DE9F843184D2E7B2F
:104E40004EB395F84060002E05F12C0508BF0025F3
:104E5000144CF60804F15409002794F82030A3B14B
:104E600094F82130012B10D1237CFE2B02D1637CDE
:104E7000802B0AD004F110087DB132464146284605
:104E80000CF0C7F8002808BF47461C344C45E4D155
:104E90003846BDE8F8833546DAE74746F5E700BF10
:104EA000D4320020543700201FB501466846FFF772
:104EB00063FF684602F0B0FD08B102F067FE034BE5
:104EC000002283F8402005B05DF804FBD4320020B6
:104ED0007FB50E461546044640B34B1E7F2B25D8A2
:104EE00012F0400020D01022002111480CF0C9F827
:104EF000F21DD20821460E480CF09BF80D494FF0E8
:104F0000FF3381F84060CB6381F8415068462C3113
:104F1000FFF732FF684602F07FFD014618B9012213
:104F2000684602F0CFFD012004B070BD0020FBE711
:104F300000330020D432002010B50F4CD4F8A0303C
:104F400043B10E4B4FF480725A600023C4F8A03274
:104F500000F060F8D4F8803023B1094BBDE8104070
:104F60001B6818474FF08053BDE81040D3F8B031AC
:104F700014201B6A184700BF00002443002009408A
:104F8000F434002030B58DB004F050FB0446684680
:104F900004F084F86B461849002203A804F0B0F925
:104FA00003A804F05DF94FF0E023D3F8083D03B9FE
:104FB000FEE71B6D114A136003B9FEE74FF0805501
:104FC0000F4914200AF05AFED5F8B031E0219B6851
:104FD00014209847D5F8843124211B680320984772
:104FE000084A136823F4E02343F440331360204657
:104FF00004F024FB0DB030BD310C0100F43400206E
:10500000394F000000200940014B186B704700BF6A
:1050100000200940044B186820B100221A60D0E932
:1050200001311847704700BFF834002038B50B4AEB
:105030005388013B9BB2012B94BF012500250BD85F
:1050400040F20443064C538021880648012209B2ED
:1050500006F0AEFF00232380284638BDE41C002064
:10506000EA490020D820002010B50A4B1B681B79A4
:10507000144673B9220202D50748FDF7B9FB630253
:1050800007D5064B044801221A70BDE81040FDF711
:10509000AFBB10BD24350020E01D0020F74B0020E1
:1050A0007FB5E8B103A806F017FE00230E498DF87E
:1050B000103003934FF0FF33059301234B804FF4DF
:1050C00040020023CDE900230848094B03AA06F05B
:1050D0000BFE084B18801A8812B2023218BF1B88C8
:1050E00007B05DF804FB00BFE41C0020D8200020BE
:1050F00069500000EA49002030B5134D87B0012205
:105100004FF0FF31284606F061FF03A806F0E4FDEA
:105110000E494FF0FF330593012300244B800022FA
:105120000023CDE900232846234603AA8DF810402A
:10513000039406F0D9FD284606F0F2FE044B204603
:105140001C7007B030BD00BFD820002010350020F3
:10515000F54B00202DE9F04387B003A806F0BCFD15
:10516000164D174900244FF0010800260027A1F82A
:105170000280234603AA4FF0FF39CDE90067284695
:105180008DF810400394CDF8149006F0ADFD03A8FF
:1051900006F0A2FD0B498DF810400C61A1F80280C9
:1051A0002346CDE9006703AA28460394CDF814905E
:1051B00006F09AFD204607B0BDE8F083D820002015
:1051C00010350020FC34002010B40C4A40F60901D0
:1051D0001180517B012464F303015173084A40F6A6
:1051E0000A011180517B64F3030151730346054AA0
:1051F0000549064810BC05F08FBD00BF10350020E2
:10520000FC340020BC1C0020341D0020D8200020CD
:105210002DE9F04387B0FFF709FF264B264C1B68AA
:105220001B7980460BB303A806F056FD4FF0FF3202
:10523000059200200122002100236280CDE90001B7
:1052400003AA21461D488DF81030039306F04CFD4B
:1052500004464046FFF724FFE01C80B201288CBFC3
:105260000020012007B0BDE8F083DFF8509004254E
:10527000002600270123638000231A46CDE900673A
:105280002146484606F034FE030709D0638840F6FD
:1052900009029BB2934203D1013D15F0FF05E9D10C
:1052A0004046FFF7FDFE608880B2B0F5806018BF11
:1052B0000120D7E724350020A41C0020D82000209E
:1052C0002DE9F04786B02F4E044603A806F004FDF2
:1052D0004FF000084FF0FF324FF000090023059215
:1052E0000125CDE9008928488DF8103003AA314600
:1052F0000393758006F0F8FCC31C9BB2AB42824658
:105300003ED9224FFFF792FE3B681B79051E18BF5E
:1053100001253BB30C34FFF777FEA4B2A0235C4316
:105320001B4B1C4AE403234493FBF2F300EB4304BE
:10533000738803F440637BB100242846FFF7B0FE76
:105340003B681B79B3B1708880B2B0F5505018BF7C
:10535000012006B0BDE8F087FFF756FE001B0028CD
:10536000E6DBE9E7084842464B46514606F0B8FD01
:105370000446E2E714F00F0F0CBF01200020E8E71D
:105380002846E6E7141D0020D82000202435002000
:1053900020A15F0240420F002DE9F043274F7B8898
:1053A000013B9BB2012B87B0044641D9B8B103A899
:1053B00006F092FC224923484FF0FF320023059269
:1053C0004FF0000801224FF000094A800B6103AA48
:1053D000CDE900898DF81030039306F085FC03A811
:1053E00006F07AFC4FF0FF3305934FF440020023A0
:1053F000CDE900230026144B104912488DF81060A7
:1054000003AA012503967D8006F06EFC0F4B1880E1
:105410001A8812B202320DD01B881BB2033309D096
:105420000B4B1D7024B10B4B0B481D70FDF7E0F9C1
:10543000002000E0284607B0BDE8F083E41C00200F
:10544000FC340020D820002069500000EA490020E8
:10545000F54B0020F64B0020E01D002010B50C4A53
:105460005388013B9BB2012B0FD840F20443094CF7
:10547000538021880848012209B206F099FD0023D3
:105480008338238018BF012010BD0020FCE700BF37
:10549000E41C0020EA490020D82000202DE9F0413A
:1054A000038805460C46002B42D040F24932934215
:1054B00064D1822941D1344B1A78A2B100221A70EA
:1054C000324B1B787BB1324B5B6898474FF4A0613D
:1054D00083B2B3FBF1F001FB103303F5AF432D486A
:1054E00099B20AF033FF822C2AD12B4E2B4F03F0B6
:1054F000A1FCFCF7FFFE3469FCF78EFE8021A0477B
:105500003B78044643B14FF0000887F80080FFF76E
:10551000A5FF4046FFF740FF002C05DDA0B2FCF7D9
:105520005FFE1F4BDB689847F36998470028DED180
:1055300040F249332B80012023E08829FBD1BAE7D0
:10554000882CF5D1134EF368002BF1D10F4B1B784B
:10555000002BEDD00E4B5B6898470446FFF758FED2
:10556000A1B24FF4A060B1FBF0F300FB131101F501
:10557000AF4189B230460AF0E9FED9E70023038043
:105580000320BDE8F08100BFF64B0020F54B002062
:10559000181401002835002088120100F74B002064
:1055A000381201002DE9F0410588752D044620D000
:1055B0007C2D3DD0002D4ED1FDF786F8284E294B8D
:1055C000294FDFF8A88018703560336857F823201A
:1055D0002AB9274A13707523238001203EE008F87A
:1055E000035000219368802098473368013333606B
:1055F000EBE7204A00231360194A1360184B1C4A3A
:105600001B6812789A4204DC1A4B1B68002BF0D1FD
:10561000E1E7164AD256002A19DA134A52F8232033
:10562000104B00201978FDF7A3F828B97C23D3E7A5
:105630000C4B1B788B42D0D1094B0C491A688B5C00
:1056400003F07F038B540B4A136801331360044A41
:1056500013680133D1E7002303800320BDE8F08104
:105660003C350020F94B0020001E0020FA4B0020A2
:10567000F84B00203835002010B40A4B0A4A19783C
:1056800000238B4203DA52F8044BA04208D10749A9
:105690000748CA5C62F07F02CA5410BCFDF7A8B884
:1056A0000133EEE7F84B0020001E0020FA4B0020EB
:1056B000F01D002070B50588672D044609D0792DAE
:1056C00031D0002D35D1FCF7FFFF1C4B18701C4B5F
:1056D0001D601C4E1A4D0AE00A282B6810D00D28B8
:1056E0000ED07E2B03DC5A1C2A60174AD054304659
:1056F0000BF0B2F9431CEFD16723238001201BE09C
:105700005A1C2A60104A0025D5540C4B284619789B
:10571000FDF72EF80D4B2A4618688521FDF728F86D
:1057200018B97923E9E78529E8D1054B00221A60E9
:10573000CFE700230380032070BD00BFFD4C002095
:105740004035002044350020FD4B0020A0310020D2
:10575000044B054A1A607F22002104489A809971FF
:10576000FDF72EB8443500207D4C00200C1E002093
:10577000F0B5124A124D13781BB1002368881370DC
:10578000F0BD1049104C08682368104F184483EA94
:1057900053230B600E493E680B683044286003EBCE
:1057A000C30500EBF32306F1010C0B600123C7F8DE
:1057B00000C02560137080B2E2E700BFFE4C0020FD
:1057C0005C3500204C350020503500205835002035
:1057D00054350020094A002310B51370084A13609D
:1057E000084B1860084B1960084B01221A601824F6
:1057F000FFF7BEFF013CFBD110BD00BFFE4C0020F7
:105800004C350020503500205435002058350020FC
:105810000B4BB02101FB00330246002030B558810C
:10582000084B014604469D7825B11D78954204BF7A
:105830009C70013001310C2903F17103F3D130BDAB
:10584000643500200A4D0020044B01221A70FD210E
:1058500000225A709970DA70704700BFFF4C002028
:1058600010B5134C0220A179FCF79AFDA379112BF6
:1058700009D1218D638D994228BF1946BDE810409A
:105880000120FCF78DBD062B06D10A4B1B8828335F
:105890001A19195B5388EEE73A2B06D1054B2834C9
:1058A0001B88195B49BA89B2E8E70021E6E700BF27
:1058B0005C3A0020424B002030B513780446087A49
:1058C00083F0020398421FD1487A537898421BD143
:1058D000887A9378984217D1C87AD378984213D1AE
:1058E000087B137998420FD1487B537998420BD1AA
:1058F000887B9379984207D1C87BD379984203D1AA
:105900000320A040C0B230BD0D4D0B892A6863B999
:105910004B89B3F57F4F08D18B89FE2B05D1CB89FD
:1059200022F8023B02202A60EBE701F1080303CBD7
:10593000083242F8080C42F8041C01202A60E0E713
:10594000C436002010B5084C2378012B014608D13D
:105950000822A01C0BF05DFB00280CBF2046002095
:1059600010BD0020FCE700BFFF4C002008B5044B31
:1059700004489B6800219847BDE8084003F05ABAE4
:1059800038120100C960000038B5134B13491C7868
:10599000134B1D68134B1B6801442A4618190BF062
:1059A00048FB601980B2FCF71BFCFDF743FA044684
:1059B00068B1FFF7DBFF2046FDF774FA2046FDF7DC
:1059C0005BFA094B1B68012B01D0032B01DD002082
:1059D00038BD0120FCE700BF565200205C3A002091
:1059E000D0360020D4360020C8360020B84B2DE930
:1059F000F74F28221A70B74A002313700446FCF7A9
:105A000079FCFCF709FCB44B1860B44B1B680BB174
:105A1000FFF726FF042003F01DF901460520FCF7DF
:105A2000BFFCAF490D20002C18BF2146FCF7C4FC79
:105A3000AC4B9B699847AC4B0028186003DC0020F6
:105A400003B0BDE8F08FA44BA84ED3F80090A14B53
:105A500093F8008008F1020809EB080404F126031A
:105A6000484483423460EAD2002309F80830A04851
:105A7000FFF768FF83469F48FFF764FF8246BBF14C
:105A8000000F02D1002800F0148101343460802519
:105A9000994C60782178030943EA0113DAB201F0E6
:105AA0000F01C3F3850320F00F0743EA82130F436E
:105AB00001075AB2DBB240F0FE806188002940F055
:105AC000FA80002F00F02B81326802F8013B70272A
:105AD0003260A379112B07D033B13C2B04D0A3F152
:105AE0002B02012A00F21D8147F00407E379402BC5
:105AF00000F01C81FF2B00F01C81012B40F01C8169
:105B000047F001072389002B40F01B81A28963899C
:105B10001343E2891343228A1343628A1343A28AFE
:105B20001343E28A13439BB2002B40F0AF8245F04F
:105B30004005237EFF2B40F06B81617E628B3368D2
:105B4000022945F0080C40F02581002A40F04F81E1
:105B5000E08BA28B0243208C0243608C0243A08C1A
:105B6000024392B2002A40F0168194F82620002ABF
:105B700040F0118194F8272003F8012B45F00B0524
:105B80003360D6F800A0DFF87491584E00230093DC
:105B9000514A33681068544A1168B9F1000F10D0A7
